S014000041544D65676131365F50574D2E7372656347
S11300000C942A000C943C000C943C000C943C008E
S11300100C943C000C943C000C943C000C943C006C
S11300200C943C000C943C000C943C000C943C005C
S11300300C943C000C943C000C943C000C943C004C
S11300400C943C000C943C000C943C000C943C003C
S11300500C943C0011241FBECFE5D4E0DEBFCDBF1D
S113006020E0A0E6B0E001C01D92A236B207E1F79D
S11300700E943E000C948A000C9400008EB58F7E82
S11300808EBD8EB588608EBD8FB583608FBD8FB5F4
S113009080688FBD8FB58F7B8FBD8EB584608EBD1C
S11300A081B3806281BB109261001092600011C024
S11300B09BBD8ABD83EF91E00197F1F700C000007A
S11300C0809160009091610001969093610080930B
S11300D0600080916000909161008F3F23E092075F
S11300E038F38FEF94E32CE0815090402040E1F707
S11300F000C000008FEF93E0909361008093600054
S11301008FEF94E32CE0815090402040E1F700C051
S10B01100000C9CFF894FFCFF1
S9030000FC
